:03000000020800F3
:0C080000787FE4F6D8FD758117020847E8
:10093A000A0E3F065B4F666D7D077F6F020C000053
:04094A0002098040DE
:10092000EF1FAA0670011E4A600FE4FDEDC3947D1F
:090930007480948050EA0D80F3FC
:01093900229B
:1008E600E50875F00A84F50CE50875F00A8485F0CC
:1008F6000DE4FCECC3940274809480501C74092CA3
:10090600F8E6F5A0740C2CF8E6240EF8E6F5B07FB0
:090916000A7E001209200C80DAAF
:01091F0022B5
:10088C00E4FB7590FF85900B1208E685900BE50B49
:10089C00F46012E4FBEBC3940F7480948050061246
:1008AC0008E60B80F0AF0B7E00EF64FE7012C3E520
:1008BC0008946374809480500405088003E4F50860
:1008CC00EF64FD4E70C2D3E50894007480948040B0
:0A08DC0004150880B375086380AEB0
:10080C0002088CE493A3F8E493A34003F68001F26E
:10081C0008DFF48029E493A3F85407240CC8C333ED
:10082C00C4540F4420C8834004F456800146F6DFBC
:10083C00E4800B010204081020408090093AE47E09
:10084C00019360BCA3FF543F30E509541FFEE493B1
:10085C00A360010ECF54C025E060A840B8E493A378
:10086C00FAE493A3F8E493A3C8C582C8CAC583CAA3
:10087C00F0A3C8C582C8CAC583CADFE9DEE780BE5B
:01094E0000A8
:00000001FF
