:03000000020800F3
:0C080000787FE4F6D8FD758116020847E9
:1008E0000A0D3F065B4F666D7D077F6F020B0000B0
:0408F0000209804039
:1008C600EF1FAA0670011E4A600FE4FDEDC3947D7A
:0908D6007480948050EA0D80F357
:0108DF0022F6
:10088C00E50875F00A84F50BE50875F00A8485F027
:10089C000CE4FCECC3940274809480501C74092CFE
:1008AC00F8E6F5A0740B2CF8E6240DF8E6F5B07F0D
:0908BC00327E001208C60C80DA3D
:0108C5002210
:0F08F50012088C0508E508646370F5F50880F1BA
:10080C000208F5E493A3F8E493A34003F68001F205
:10081C0008DFF48029E493A3F85407240CC8C333ED
:10082C00C4540F4420C8834004F456800146F6DFBC
:10083C00E4800B01020408102040809008E0E47E64
:10084C00019360BCA3FF543F30E509541FFEE493B1
:10085C00A360010ECF54C025E060A840B8E493A378
:10086C00FAE493A3F8E493A3C8C582C8CAC583CAA3
:10087C00F0A3C8C582C8CAC583CADFE9DEE780BE5B
:0108F4000003
:00000001FF
